:060000000A128A11EF2F25
:100B1A00831608108810081188118312081088108B
:100B2A00081188117108DC007008DB0008007E08D3
:100B3A008A007F0882009C250A128A118000840A92
:100B4A0004087D0603190034FF0A0319FE0AA02DC2
:100B5A007008710403190800C730F200B42DF20BB3
:100B6A00B32DB72DB82D0130F0020030031CF1036C
:100B7A00F102AD2D31343234333441343434353426
:100B8A003634423437343834393443342A343034FE
:100B9A002334443402340634043405340134093429
:100BAA0008340A3402340434013408340030FC00B6
:100BBA000030FB000030FA000030F900701CF92DFB
:100BCA007408F907750803110318013E031DFA0793
:100BDA00760803110318013E031DFB07770803116A
:100BEA000318013E031DFC070130F8000310F40D41
:100BFA00F50DF60DF70DF80BFB2D01300310F30C74
:100C0A00F20CF10CF00CFF3E031D032E7308720464
:100C1A0071047004031DE32D7C08F3007B08F200C5
:100C2A007A08F1007908F00008000830F000003076
:100C3A00F1000A128A118D250A128A11B830F000C1
:100C4A000B30F1000A128A11AD250A128A11831299
:100C5A000313AE01AE0A0030B2000030B10000301A
:100C6A00B0005A30AF00E830B3000330B4000130AE
:100C7A000A128A112D270A128A11B830F0000B3095
:100C8A00F1000A128A11AD250A128A11831203137E
:100C9A00AE01AE0A0030B2000030B1000030B00040
:100CAA005A30AF00E830B3000330B40001300A1202
:100CBA008A112D270A128A11B830F0000B30F10080
:100CCA000A128A11AD250A128A1183120313AE0180
:100CDA00AE0A0030B2000030B1000030B0005A3025
:100CEA00AF00E830B3000330B40000300A128A11B2
:100CFA002D270A128A11B830F0000B30F1000A12BF
:100D0A008A11AD250A128A1183120313AE01AE0AA3
:100D1A000030B2000030B1000030B0005A30AF00ED
:100D2A00E830B3000330B40000300A128A112D27CC
:100D3A000A128A11232EA901A31FB02EA009A10904
:100D4A00A209A309A00A0319A10A0319A20A0319ED
:100D5A00A30AA901A90AA71FC12EA409A509A609C0
:100D6A00A709A40A0319A50A0319A60A0319A70AB7
:100D7A000130FD007D08A9060030AD000030AC004E
:100D8A000030AB000030AA0023082204210420040A
:100D9A000319162FA801A80AA31BE12E0130FD0092
:100DAA000310A00DA10DA20DA30DFD0BD52E013030
:100DBA00FD007D08A807D12E0130FD000310AA0D01
:100DCA00AB0DAC0DAD0DFD0BE32E23082702031D61
:100DDA00F82E22082602031DF82E21082502031DDB
:100DEA00F82E20082402031C092F2008A402210837
:100DFA00031C210FA5022208031C220FA6022308A6
:100E0A00031C230FA7022A1401300310A30CA20CFF
:100E1A00A10CA00CFF3E031D0A2F0130A802031DDE
:100E2A00E12E29080319242FAA09AB09AC09AD0937
:100E3A00AA0A0319AB0A0319AC0A0319AD0A2D0849
:100E4A00A3002C08A2002B08A1002A08A000080071
:100E5A00BA003A03031D902F0030A3000030A2000D
:100E6A000030A100B430A0005B08F0005C08F1007B
:100E7A000030F11BFF30F200F3003208F7003108AE
:100E8A00F6003008F5002F08F4000A128A11DB2553
:100E9A000A128A117308A7007208A6007108A50031
:100EAA007008A4000A128A11A0260A128A112108BF
:100EBA00B7002008B600BB01BC013C08803AB50067
:100ECA003708803A3502031D6C2F36083B02031897
:100EDA000800831203135D084F3E84000808F039A6
:100EEA008313000488003408F1003308F0000A1262
:100EFA008A11AD250A128A11831203132E085D077F
:100F0A000739B5003508DD000130BB070318BC0AF4
:100F1A000030BC07622F0030A3000030A20001306D
:100F2A00A1006830A0005B08F0005C08F100003006
:100F3A00F11BFF30F200F3003208F7003108F60027
:100F4A003008F5002F08F4000A128A11DB250A126C
:100F5A008A117308A7007208A6007108A500700814
:100F6A00A4000A128A11A0260A128A112108B900BD
:100F7A002008B800BD01BE013E08803AB500390814
:100F8A00803A3502031DCB2F38083D0203180800AA
:100F9A00831203135D08573E84000808F03983134F
:100FAA00000488003408F1003308F0000A128A119C
:100FBA00AD250A128A11831203132E085D0703391D
:100FCA00B5003508DD000130BD070318BE0A003040
:100FDA00BE07C12F83135B30FD000530FE00BF3012
:100FEA00FF003F3084000A128A11A025DD01830127
:060FFA000A128A111A2EF2
:04400E00D420FF3F7C
:00000001FF
