:020000040000FA
:060000000A128A11ED2F27
:100A9A008316031308108810081188118312031390
:100AAA0008108810081188117108D4007008D30042
:100ABA0008007E088A007F0882000A128A115E25D1
:100ACA000A128A118000840A04087D060319003478
:100ADA00FF0A0319FE0A622D3134323433344134A9
:100AEA003434353436344234373438343934433490
:100AFA002A3430342334443402340434013408347C
:100B0A00942DC730F200892DF20B882D8C2D8D2D56
:100B1A000130F0020030031CF103F102942D700839
:100B2A007104031D992D9A2D862D9B2D08000030E6
:100B3A00FC000030FB000030FA000030F900A52D5F
:100B4A00701CA82DA92DC12D7408F9077508031169
:100B5A000318013E0319B22DFA0776080311031888
:100B6A00013E0319B92DFB07770803110318013E4B
:100B7A000319C02DFC07C12D0130F8000310F40D34
:100B8A00F50DF60DF70DF80BC32D01300310F30C1C
:100B9A00F20CF10CF00CFF3E031DCB2D730872040E
:100BAA0071047004031DDA2DDB2DA52DDC2D7C08C4
:100BBA00F3007B08F2007A08F1007908F000E52DCD
:100BCA00080083120313BC000030A3000030A20007
:100BDA000130A1006830A0005308F0005408F10069
:100BEA000030F11BFF30F200F3003108F700300843
:100BFA00F6002F08F5002E08F4000A128A119C2527
:100C0A000A128A11730883120313A7007208A60036
:100C1A007108A5007008A4000A128A1164260A1233
:100C2A008A11831203132308BB002208BA00210881
:100C3A00B9002008B800BD01BE01432E55084F3E39
:100C4A0084000808F0398313000488003C0855071B
:100C5A000339B4003408D5003308F1003208F00033
:100C6A000A128A1185250A128A1101308312031386
:100C7A00BD070318BE0A0030BE07432E3D08B40064
:100C8A003E08B5000030B51BFF30B600B700370884
:100C9A00803AFF003B08803A7F02031D5E2E3A0825
:100CAA003602031D5E2E39083502031D5E2E3808F2
:100CBA003402031C612E622E232E632E0800831237
:100CCA000313A901A31F6A2E6B2E782EA009A1096E
:100CDA00A209A309A00A0319A10A0319A20A03195E
:100CEA00A30AA901A90AA71F7B2E7C2E8C2EA40970
:100CFA00A509A609A709A40A0319A50A0319A60A98
:100D0A000319A70A0130FD007D08A9068C2E0030C0
:100D1A00AD000030AC000030AB000030AA00230860
:100D2A0022042104200403199B2E9C2EEF2EA801D5
:100D3A00A80AAD2E0130FD000310A00DA10DA20DD1
:100D4A00A30DFD0BA12E0130FD007D08A807AD2ED5
:100D5A00A31FB02EB12E9F2EB32EB32E0130FD004D
:100D6A000310AA0DAB0DAC0DAD0DFD0BB52E23086E
:100D7A002702031DCA2E22082602031DCA2E210895
:100D8A002502031DCA2E20082402031CCD2ECE2EB6
:100D9A00DE2E2008A4022108031C210FA502220826
:100DAA00031C220FA6022308031C230FA7022A14DE
:100DBA00DE2E01300310A30CA20CA10CA00CFF3EE6
:100DCA00031DDF2E0130A802031DEC2EED2EB32EDB
:100DDA00EF2EEF2E29080319F32EF42E002FAA095D
:100DEA00AB09AC09AD09AA0A0319AB0A0319AC0A83
:100DFA000319AD0A002F2D08A3002C08A2002B0806
:100E0A00A1002A08A000092F08000030F0000430D1
:100E1A00F1000A128A114D250A128A11E830F000EF
:100E2A000330F1000A128A1185250A128A111D2F30
:100E3A00003083120313B1000030B0000030AF005D
:100E4A007E30AE000130B2000030B30001300A1229
:100E5A008A11E6250A128A11E830F0000330F100FF
:100E6A000A128A1185250A128A1100308312031385
:100E7A00B1000030B0000030AF007E30AE0001306B
:100E8A00B2000030B30001300A128A11E6250A12B4
:100E9A008A11E830F0000330F1000A128A11852520
:100EAA000A128A11003083120313B1000030B00015
:100EBA000030AF007E30AE000130B2000030B30027
:100ECA0001300A128A11E6250A128A11E830F00066
:100EDA000330F1000A128A1185250A128A1100309C
:100EEA0083120313B1000030B0000030AF007E302F
:100EFA00AE000130B2000030B30001300A128A118C
:100F0A00E6250A128A11E830F0000330F1000A12CD
:100F1A008A1185250A128A11003083120313B1003F
:100F2A000030B0000030AF00FC30AE000130B2003B
:100F3A000030B30001300A128A11E6250A128A111A
:100F4A00E830F0000330F1000A128A1185250A12EE
:100F5A008A11003083120313B1000030B000003050
:100F6A00AF00FC30AE000130B2000030B3000130F7
:100F7A000A128A11E6250A128A11E830F0000330B3
:100F8A00F1000A128A1185250A128A110030831289
:100F9A000313B1000030B0000130AF00F830AE00EA
:100FAA000130B2000030B30001300A128A11E6257E
:100FBA000A128A11E830F0000330F1000A128A118D
:100FCA0085250A128A111D2F1D2F0A128A1100283F
:100FDA0083135330FD000530FE007130FF003F30AF
:100FEA0084000A128A1162250A128A11D501830124
:060FFA000A128A110A2F01
:04400E00D4E0FFFFFC
:00000001FF
