:020000040000FA
:060000000A128A11ED2F27
:100C380083160313081088100811881183120313F0
:100C480008108810081188117108CF007008CE00AC
:100C580008007E088A007F0882000A128A112D2661
:100C68000A128A118000840A04087D0603190034D8
:100C7800FF0A0319FE0A312E4F2EC730F200442E08
:100C8800F20B432E472E482E0130F0020030031C91
:100C9800F103F1024F2E70087104031D542E552ED6
:100CA800412E562E08003134323433344134343432
:100CB80035343634423437343834393443342A34CA
:100CC80030342334443402340634043405340134D3
:100CD800093408340A340234043401340834F40181
:100CE800F501762E701C792E7A2E802E7208F40764
:100CF8000318F50A7308F50701300310F20DF30D18
:100D0800FF3E031D812E01300310F10CF00CFF3E55
:100D1800031D882E70087104031D932E942E762EC1
:100D2800952E7508F1007408F0009A2E0800083016
:100D3800F0000030F1000A128A111C260A128A11EA
:100D4800A52E83120313C001C00A6830C100013008
:100D5800C200E830C3000330C40001300A128A110F
:100D680038270A128A11B830F0000B30F1000A1245
:100D78008A1140260A128A11A52EA52E0A128A1156
:100D8800002883120313BD01F71FCB2ECC2ED42EBF
:100D9800F609F709F60A0319F70ABD01BD0AD42EA8
:100DA800F91FD72ED82EE22EF809F909F80A0319E7
:100DB800F90A0130FA007A08BD06E22EBE01BF0129
:100DC800760877040319E92EEA2E272FBC01BC0AFE
:100DD800F92E01300310F60DF70DFF3E031DEE2E20
:100DE8000130FA007A08BC07F92EF71FFC2EFD2EF9
:100DF800ED2EFF2EFF2E01300310BE0DBF0DFF3E5E
:100E0800031D002F77087902031D0C2F760878023E
:100E1800031C0F2F102F182F7608F8027708031CD1
:100E2800F903F9023E14182F01300310F70CF60CE1
:100E3800FF3E031D192F0130BC02031D242F252F4F
:100E4800FF2E272F272F3D0803192B2F2C2F322F4A
:100E5800BE09BF09BE0A0319BF0A322F3F08F700AF
:100E68003E08F600372F080083120313C900490310
:100E7800031D3F2F402F952FB430F6000030F700A8
:100E88004208F1004108F0004F08F3004E08F20054
:100E98000A128A1173260A128A117108F900700859
:100EA800F8000A128A11C5260A128A1177088312D5
:100EB8000313C6007608C500CA01CB01852F83122B
:100EC80003135008303E84000808F03983130004E7
:100ED80088004408F1004308F0000A128A114026ED
:100EE8000A128A1183120313400850070739FB00BE
:100EF8007B08D0000130CA070318CB0A0030CB07A3
:100F0800852F4B08803AFB004608803A7B02031D78
:100F18008F2F45084A02031C922F932F632FEC2F23
:100F2800EC2F6830F6000130F700831203134208F3
:100F3800F1004108F0004F08F3004E08F2000A12D1
:100F48008A1173260A128A117108F9007008F800CC
:100F58000A128A11C5260A128A1177088312031306
:100F6800C8007608C700CC01CD01DC2F831203131B
:100F78005008383E84000808F039831300048800BC
:100F88004408F1004308F0000A128A1140260A12A8
:100F98008A1183120313400850070339FB007B08AA
:100FA800D0000130CC070318CD0A0030CD07DC2F64
:100FB8004D08803AFB004808803A7B02031DE62F63
:100FC80047084C02031CE92FEA2FBA2FEC2FEC2F0D
:100FD800080083133C30FD000630FE005730FF0048
:100FE800203084000A128A1131260A128A11D0018F
:080FF80083010A128A119B2EED
:04400E00D4E0FFFFFC
:00000001FF
