:020000040000FA
:060000000A128A11ED2F27
:100CBE00831603130810881008118811831203136A
:100CCE0008108810081188117108B5007008B4005A
:100CDE0008007E088A007F0882000A128A11702698
:100CEE000A128A118000840A04087D060319003452
:100CFE00FF0A0319FE0A742E313432343334413470
:100D0E003434353436344234373438343934433469
:100D1E002A34303423344434023404340134083455
:100D2E0010340034A82EC730F2009D2EF20B9C2EEC
:100D3E00A02EA12E0130F0020030031CF103F102AF
:100D4E00A82E70087104031DAD2EAE2E9A2EAF2E56
:100D5E000800F401F501B32E701CB62EB72EBD2E71
:100D6E007208F4070318F50A7308F507013003102B
:100D7E00F20DF30DFF3E031DBE2E01300310F10CDC
:100D8E00F00CFF3E031DC52E70087104031DD02EFE
:100D9E00D12EB32ED22E7508F1007408F000D72E86
:100DAE0008006430F0000030F1000A128A115F264C
:100DBE000A128A11B830F0000B30F1000A128A11B3
:100DCE0099260A128A11EB2E5A3083120313BA0097
:100DDE000030BB006430BC000030BD0001300A1290
:100DEE008A1122270A128A11B830F0000B30F10056
:100DFE000A128A1199260A128A11B4308312031329
:100E0E00BA000030BB001430BC000030BD00FF3013
:100E1E000A128A1122270A128A11B830F0000B30FA
:100E2E00F1000A128A1199260A128A11EB2EEB2E64
:100E3E000A128A11002883120313C0006830F600CC
:100E4E000130F7003B08F1003A08F0003508F300D6
:100E5E003408F2000A128A11B0260A128A11710899
:100E6E00F9007008F8000A128A117A270A128A11FC
:100E7E00770883120313BF007608BE00C101C201BA
:100E8E006A2F831203134308303E84000808F0399A
:100E9E00831300048800400843070339FB007B08D6
:100EAE00C300FA30F0000030F1000A128A119926C0
:100EBE000A128A11013083120313C1070318C20AE2
:100ECE000030C2076A2F4208803AFB003F08803A82
:100EDE007B02031D742F3E084102031C772F782FCF
:100EEE00482F792F080083120313B701F71F802FA5
:100EFE00812F892FF609F709F60A0319F70AB701A8
:100F0E00B70A892FF91F8C2F8D2F972FF809F90902
:100F1E00F80A0319F90A0130FA007A08B706972F72
:100F2E00B801B9017608770403199E2F9F2FDC2F85
:100F3E00B601B60AAE2F01300310F60DF70DFF3EC7
:100F4E00031DA32F0130FA007A08B607AE2FF71F44
:100F5E00B12FB22FA22FB42FB42F01300310B80D22
:100F6E00B90DFF3E031DB52F77087902031DC12F62
:100F7E0076087802031CC42FC52FCD2F7608F802F1
:100F8E007708031CF903F9023814CD2F0130031032
:100F9E00F70CF60CFF3E031DCE2F0130B602031DDB
:100FAE00D92FDA2FB42FDC2FDC2F37080319E02FBF
:100FBE00E12FE72FB809B909B80A0319B90AE72FC3
:100FCE003908F7003808F600EC2F08008313363086
:100FDE00FD000630FE008330FF00203084000A1230
:100FEE008A1174260A128A11C30183010A128A1108
:020FFE00D82EEB
:04400E00D4E0FFFFFC
:00000001FF
